:100000000C945A000C9471000C946F000C946F00C7
:100010000C946F000C946F000C946F000C946F00A4
:100020000C946F000C946F000C946F000C946F0094
:100030000C946F000C946F000C946F000C946F0084
:100040000C946F000C946F000C946F000C946F0074
:100050000C946F000C946F000C946F000C946F0064
:100060000C946F000C946F000C946F000C946F0054
:100070000C946F000C946F000C946F000C946F0044
:100080000C946F000C946F000C946F000C946F0034
:100090000C946F000C946F000C946F000C946F0024
:1000A0000C946F000C946F000C946F000C946F0014
:1000B0000C946F0011241FBECFEFD8E0DEBFCDBF80
:1000C00011E0A0E0B1E0EEEDF1E002C005900D928C
:1000D000A430B107D9F70E949E000C94ED000C9457
:1000E00000001F920F920FB60F9211248F939F93CF
:1000F0008091020190910301992354F088E893E1E3
:10010000909301018093000185B18E6085B909C08B
:1001100080EA9FE0909301018093000185B18460A3
:1001200085B9109203011092020181E08CBB9F916E
:100130008F910F900FBE0F901F90189584B18E6015
:1001400084B985B1817F85B98AB18B7F8AB9E9E6A7
:10015000F0E082E0808380818E7F80838DB3816038
:100160008DBB789480910201909103019923D4F37F
:100170008FE99FE00197F1F700C000008091020134
:100180009091030101969093030180930201809165
:100190000001909101018838934151F4809102014E
:1001A00090910301883E934019F485B1857F85B90C
:1001B0002091020130910301809100019091010191
:1001C000281739077CF285B18B7F85B98FEF9FEFB8
:0E01D0009093030180930201C5CFF894FFCFF6
:0401DE00A00FFFFF70
:00000001FF
